{
  "contractName": "SigVerifier",
  "abi": [
    {
      "inputs": [
        {
          "internalType": "uint256",
          "name": "balance1",
          "type": "uint256"
        },
        {
          "internalType": "uint256",
          "name": "balance2",
          "type": "uint256"
        },
        {
          "internalType": "bytes",
          "name": "signature",
          "type": "bytes"
        }
      ],
      "name": "verifySignature",
      "outputs": [
        {
          "internalType": "address",
          "name": "",
          "type": "address"
        }
      ],
      "stateMutability": "nonpayable",
      "type": "function"
    }
  ],
  "bytecode": "0x608060405234801561001057600080fd5b506105fe806100206000396000f3fe608060405234801561001057600080fd5b5060043610610048576000357c0100000000000000000000000000000000000000000000000000000000900480635fa2d69a1461004d575b600080fd5b61006760048036038101906100629190610255565b61007d565b604051610074919061040f565b60405180910390f35b6000806100b185856040516020016100969291906103e3565b6040516020818303038152906040528051906020012061012f565b905060008060006100c18661015f565b8093508194508295505050506000600185858585604051600081526020016040526040516100f2949392919061042a565b6020604051602081039080840390855afa158015610114573d6000803e3d6000fd5b50505060206040510351905080955050505050509392505050565b60008160405160200161014291906103bd565b604051602081830303815290604052805190602001209050919050565b600080600060418451146101a8576040517f08c379a000000000000000000000000000000000000000000000000000000000815260040161019f9061046f565b60405180910390fd5b60008060006020870151925060408701519150606087015160001a90508083839550955095505050509193909250565b60006101eb6101e6846104c0565b61048f565b90508281526020810184848401111561020357600080fd5b61020e84828561055f565b509392505050565b600082601f83011261022757600080fd5b81356102378482602086016101d8565b91505092915050565b60008135905061024f816105b1565b92915050565b60008060006060848603121561026a57600080fd5b600061027886828701610240565b935050602061028986828701610240565b925050604084013567ffffffffffffffff8111156102a657600080fd5b6102b286828701610216565b9150509250925092565b6102c58161050c565b82525050565b6102d48161051e565b82525050565b6102eb6102e68261051e565b61056e565b82525050565b60006102fe601c83610501565b91507f19457468657265756d205369676e6564204d6573736167653a0a3332000000006000830152601c82019050919050565b600061033e6025836104f0565b91507f53696756657269666965723a20496e76616c6964207369676e6174757265206c60008301527f656e6774680000000000000000000000000000000000000000000000000000006020830152604082019050919050565b6103a86103a382610548565b610578565b82525050565b6103b781610552565b82525050565b60006103c8826102f1565b91506103d482846102da565b60208201915081905092915050565b60006103ef8285610397565b6020820191506103ff8284610397565b6020820191508190509392505050565b600060208201905061042460008301846102bc565b92915050565b600060808201905061043f60008301876102cb565b61044c60208301866103ae565b61045960408301856102cb565b61046660608301846102cb565b95945050505050565b6000602082019050818103600083015261048881610331565b9050919050565b6000604051905081810181811067ffffffffffffffff821117156104b6576104b5610582565b5b8060405250919050565b600067ffffffffffffffff8211156104db576104da610582565b5b601f19601f8301169050602081019050919050565b600082825260208201905092915050565b600081905092915050565b600061051782610528565b9050919050565b6000819050919050565b600073ffffffffffffffffffffffffffffffffffffffff82169050919050565b6000819050919050565b600060ff82169050919050565b82818337600083830152505050565b6000819050919050565b6000819050919050565b7f4e487b7100000000000000000000000000000000000000000000000000000000600052604160045260246000fd5b6105ba81610548565b81146105c557600080fd5b5056fea26469706673582212203ba376ed86165ad47473080c06896ebb73923060395f942b0d026e6a59a5a88e64736f6c63430008000033",
  "immutableReferences": {},
  "source": "// SPDX-License-Identifier: MIT\npragma solidity ^0.8.0;\n\ncontract SigVerifier {\n\n  function verifySignature(uint256 balance1, uint256 balance2, bytes memory signature) public returns (address) {\n      // Recreate the message signed on the client\n      bytes32 message = prefixed(keccak256(abi.encodePacked(balance1, balance2)));\n      \n      uint8 v;\n      bytes32 r;\n      bytes32 s;\n      (v, r, s) = splitSignature(signature);\n      address signerAddress = ecrecover(message, v, r, s);\n      return signerAddress;\n  }\n\n  function splitSignature(bytes memory _signature) internal pure returns (uint8, bytes32, bytes32) {\n    require(_signature.length == 65, \"SigVerifier: Invalid signature length\");\n\n    bytes32 r;\n    bytes32 s;\n    uint8 v;\n\n    assembly {\n      r := mload(add(_signature, 32))\n      s := mload(add(_signature, 64))\n      v := byte(0, mload(add(_signature, 96)))\n    }\n\n    return (v, r, s);\n  }\n\n  function prefixed(bytes32 hash) internal pure returns (bytes32) {\n      return keccak256(abi.encodePacked(\"\\x19Ethereum Signed Message:\\n32\", hash));\n  }\n}",
  "sourcePath": "/home/austin/projects/state-channel/contracts/SigVerifier.sol",
  "compiler": {
    "name": "solc",
    "version": "0.8.0+commit.c7dfd78e.Emscripten.clang"
  },
  "schemaVersion": "3.3.4",
  "updatedAt": "2021-06-06T09:24:19.208Z",
  "devdoc": {
    "kind": "dev",
    "methods": {},
    "version": 1
  },
  "userdoc": {
    "kind": "user",
    "methods": {},
    "version": 1
  }
}