{
  "contractName": "StateChannel",
  "abi": [
    {
      "inputs": [
        {
          "internalType": "address",
          "name": "_user1",
          "type": "address"
        },
        {
          "internalType": "address",
          "name": "_user2",
          "type": "address"
        },
        {
          "internalType": "address",
          "name": "_token",
          "type": "address"
        }
      ],
      "stateMutability": "nonpayable",
      "type": "constructor"
    },
    {
      "inputs": [],
      "name": "Token",
      "outputs": [
        {
          "internalType": "contract TokenMock",
          "name": "",
          "type": "address"
        }
      ],
      "stateMutability": "view",
      "type": "function",
      "constant": true
    },
    {
      "inputs": [],
      "name": "confirmations",
      "outputs": [
        {
          "internalType": "uint256",
          "name": "",
          "type": "uint256"
        }
      ],
      "stateMutability": "view",
      "type": "function",
      "constant": true
    },
    {
      "inputs": [],
      "name": "user1",
      "outputs": [
        {
          "internalType": "address",
          "name": "",
          "type": "address"
        }
      ],
      "stateMutability": "view",
      "type": "function",
      "constant": true
    },
    {
      "inputs": [],
      "name": "user2",
      "outputs": [
        {
          "internalType": "address",
          "name": "",
          "type": "address"
        }
      ],
      "stateMutability": "view",
      "type": "function",
      "constant": true
    },
    {
      "inputs": [
        {
          "internalType": "uint256",
          "name": "balance1",
          "type": "uint256"
        },
        {
          "internalType": "uint256",
          "name": "balance2",
          "type": "uint256"
        },
        {
          "internalType": "bytes",
          "name": "signature",
          "type": "bytes"
        }
      ],
      "name": "verifySignature",
      "outputs": [
        {
          "internalType": "address",
          "name": "",
          "type": "address"
        }
      ],
      "stateMutability": "nonpayable",
      "type": "function"
    },
    {
      "inputs": [
        {
          "internalType": "bytes",
          "name": "signature",
          "type": "bytes"
        },
        {
          "internalType": "address",
          "name": "_user1",
          "type": "address"
        },
        {
          "internalType": "address",
          "name": "_user2",
          "type": "address"
        },
        {
          "internalType": "uint256",
          "name": "_balance1",
          "type": "uint256"
        },
        {
          "internalType": "uint256",
          "name": "_balance2",
          "type": "uint256"
        }
      ],
      "name": "execute",
      "outputs": [],
      "stateMutability": "nonpayable",
      "type": "function"
    }
  ],
  "bytecode": "0x608060405234801561001057600080fd5b5060405162000f4a38038062000f4a83398181016040528101906100349190610113565b826000806101000a81548173ffffffffffffffffffffffffffffffffffffffff021916908373ffffffffffffffffffffffffffffffffffffffff16021790555081600160006101000a81548173ffffffffffffffffffffffffffffffffffffffff021916908373ffffffffffffffffffffffffffffffffffffffff16021790555080600260006101000a81548173ffffffffffffffffffffffffffffffffffffffff021916908373ffffffffffffffffffffffffffffffffffffffff1602179055505050506101ab565b60008151905061010d81610194565b92915050565b60008060006060848603121561012857600080fd5b6000610136868287016100fe565b9350506020610147868287016100fe565b9250506040610158868287016100fe565b9150509250925092565b600061016d82610174565b9050919050565b600073ffffffffffffffffffffffffffffffffffffffff82169050919050565b61019d81610162565b81146101a857600080fd5b50565b610d8f80620001bb6000396000f3fe608060405234801561001057600080fd5b506004361061007f576000357c0100000000000000000000000000000000000000000000000000000000900480635fa2d69a146100845780637e9770a5146100b45780639cf5d607146100d0578063ac1717b0146100ee578063b9edb1af1461010c578063c24126761461012a575b600080fd5b61009e6004803603810190610099919061075e565b610148565b6040516100ab9190610a02565b60405180910390f35b6100ce60048036038101906100c991906106cf565b6101fa565b005b6100d86104e0565b6040516100e59190610b22565b60405180910390f35b6100f66104e6565b6040516101039190610a02565b60405180910390f35b61011461050a565b6040516101219190610a02565b60405180910390f35b610132610530565b60405161013f9190610aa7565b60405180910390f35b60008061017c85856040516020016101619291906109d6565b60405160208183030381529060405280519060200120610556565b9050600080600061018c86610586565b8093508194508295505050506000600185858585604051600081526020016040526040516101bd9493929190610a62565b6020604051602081039080840390855afa1580156101df573d6000803e3d6000fd5b50505060206040510351905080955050505050509392505050565b6000610207838388610148565b905060001515600360003373ffffffffffffffffffffffffffffffffffffffff1673ffffffffffffffffffffffffffffffffffffffff16815260200190815260200160002060009054906101000a900460ff1615151461029c576040517f08c379a000000000000000000000000000000000000000000000000000000000815260040161029390610b02565b60405180910390fd5b600160045411156102e2576040517f08c379a00000000000000000000000000000000000000000000000000000000081526004016102d990610ac2565b60405180910390fd5b60008054906101000a900473ffffffffffffffffffffffffffffffffffffffff1673ffffffffffffffffffffffffffffffffffffffff168173ffffffffffffffffffffffffffffffffffffffff1614806103895750600160009054906101000a900473ffffffffffffffffffffffffffffffffffffffff1673ffffffffffffffffffffffffffffffffffffffff168173ffffffffffffffffffffffffffffffffffffffff16145b156103fc576001600360003373ffffffffffffffffffffffffffffffffffffffff1673ffffffffffffffffffffffffffffffffffffffff16815260200190815260200160002060006101000a81548160ff02191690831515021790555060016004546103f59190610bba565b6004819055505b600260045414156104d857600260009054906101000a900473ffffffffffffffffffffffffffffffffffffffff1673ffffffffffffffffffffffffffffffffffffffff1663373cf0b9868587866040518563ffffffff167c01000000000000000000000000000000000000000000000000000000000281526004016104849493929190610a1d565b602060405180830381600087803b15801561049e57600080fd5b505af11580156104b2573d6000803e3d6000fd5b505050506040513d601f19601f820116820180604052508101906104d691906106a6565b505b505050505050565b60045481565b60008054906101000a900473ffffffffffffffffffffffffffffffffffffffff1681565b600160009054906101000a900473ffffffffffffffffffffffffffffffffffffffff1681565b600260009054906101000a900473ffffffffffffffffffffffffffffffffffffffff1681565b60008160405160200161056991906109b0565b604051602081830303815290604052805190602001209050919050565b600080600060418451146105cf576040517f08c379a00000000000000000000000000000000000000000000000000000000081526004016105c690610ae2565b60405180910390fd5b60008060006020870151925060408701519150606087015160001a90508083839550955095505050509193909250565b600061061261060d84610b6e565b610b3d565b90508281526020810184848401111561062a57600080fd5b610635848285610c93565b509392505050565b60008135905061064c81610d14565b92915050565b60008151905061066181610d2b565b92915050565b600082601f83011261067857600080fd5b81356106888482602086016105ff565b91505092915050565b6000813590506106a081610d42565b92915050565b6000602082840312156106b857600080fd5b60006106c684828501610652565b91505092915050565b600080600080600060a086880312156106e757600080fd5b600086013567ffffffffffffffff81111561070157600080fd5b61070d88828901610667565b955050602061071e8882890161063d565b945050604061072f8882890161063d565b935050606061074088828901610691565b925050608061075188828901610691565b9150509295509295909350565b60008060006060848603121561077357600080fd5b600061078186828701610691565b935050602061079286828701610691565b925050604084013567ffffffffffffffff8111156107af57600080fd5b6107bb86828701610667565b9150509250925092565b6107ce81610c10565b82525050565b6107dd81610c2e565b82525050565b6107f46107ef82610c2e565b610ca2565b82525050565b61080381610c6f565b82525050565b6000610816601c83610baf565b91507f19457468657265756d205369676e6564204d6573736167653a0a3332000000006000830152601c82019050919050565b6000610856602483610b9e565b91507f53746174654368616e6e656c3a20436f6e6669726d6174696f6e73206578636560008301527f65646564000000000000000000000000000000000000000000000000000000006020830152604082019050919050565b60006108bc602583610b9e565b91507f53696756657269666965723a20496e76616c6964207369676e6174757265206c60008301527f656e6774680000000000000000000000000000000000000000000000000000006020830152604082019050919050565b6000610922602483610b9e565b91507f53746174654368616e6e656c3a205573657220616c726561647920636f6e666960008301527f726d6564000000000000000000000000000000000000000000000000000000006020830152604082019050919050565b61098481610c58565b82525050565b61099b61099682610c58565b610cac565b82525050565b6109aa81610c62565b82525050565b60006109bb82610809565b91506109c782846107e3565b60208201915081905092915050565b60006109e2828561098a565b6020820191506109f2828461098a565b6020820191508190509392505050565b6000602082019050610a1760008301846107c5565b92915050565b6000608082019050610a3260008301876107c5565b610a3f602083018661097b565b610a4c60408301856107c5565b610a59606083018461097b565b95945050505050565b6000608082019050610a7760008301876107d4565b610a8460208301866109a1565b610a9160408301856107d4565b610a9e60608301846107d4565b95945050505050565b6000602082019050610abc60008301846107fa565b92915050565b60006020820190508181036000830152610adb81610849565b9050919050565b60006020820190508181036000830152610afb816108af565b9050919050565b60006020820190508181036000830152610b1b81610915565b9050919050565b6000602082019050610b37600083018461097b565b92915050565b6000604051905081810181811067ffffffffffffffff82111715610b6457610b63610ce5565b5b8060405250919050565b600067ffffffffffffffff821115610b8957610b88610ce5565b5b601f19601f8301169050602081019050919050565b600082825260208201905092915050565b600081905092915050565b6000610bc582610c58565b9150610bd083610c58565b9250827fffffffffffffffffffffffffffffffffffffffffffffffffffffffffffffffff03821115610c0557610c04610cb6565b5b828201905092915050565b6000610c1b82610c38565b9050919050565b60008115159050919050565b6000819050919050565b600073ffffffffffffffffffffffffffffffffffffffff82169050919050565b6000819050919050565b600060ff82169050919050565b6000610c7a82610c81565b9050919050565b6000610c8c82610c38565b9050919050565b82818337600083830152505050565b6000819050919050565b6000819050919050565b7f4e487b7100000000000000000000000000000000000000000000000000000000600052601160045260246000fd5b7f4e487b7100000000000000000000000000000000000000000000000000000000600052604160045260246000fd5b610d1d81610c10565b8114610d2857600080fd5b50565b610d3481610c22565b8114610d3f57600080fd5b50565b610d4b81610c58565b8114610d5657600080fd5b5056fea2646970667358221220e599cfcc8e2bdbf027bcc70322443bd9e36e3ebf565b22715e6f64b33e27f42664736f6c63430008000033",
  "immutableReferences": {},
  "source": "// SPDX-License-Identifier: MIT\npragma solidity ^0.8.0;\nimport \"./TokenMock.sol\";\nimport \"./SigVerifier.sol\";\n\ncontract StateChannel is SigVerifier {\n    address public user1;\n    address public user2;\n    TokenMock public Token;\n    mapping(address => bool) confirmed;\n    uint256 public confirmations;\n\n    constructor(\n        address _user1,\n        address _user2,\n        address _token\n    ) public {\n        user1 = _user1;\n        user2 = _user2;\n        Token = TokenMock(_token);\n    }\n\n    function execute(\n        bytes memory signature,\n        address _user1,\n        address _user2,\n        uint256 _balance1,\n        uint256 _balance2\n    ) public {\n        address user = verifySignature(_balance1, _balance2, signature);\n        require(\n            confirmed[msg.sender] == false,\n            \"StateChannel: User already confirmed\"\n        );\n        require(confirmations <= 1, \"StateChannel: Confirmations exceeded\");\n        if (user == user1 || user == user2) {\n            confirmed[msg.sender] = true;\n            confirmations = confirmations + 1;\n        }\n\n        if (confirmations == 2) {\n            Token.updateBalances(_user1, _balance1, _user2, _balance2);\n        }\n    }\n}\n",
  "sourcePath": "/home/austin/projects/state-channel/contracts/StateChannel.sol",
  "compiler": {
    "name": "solc",
    "version": "0.8.0+commit.c7dfd78e.Emscripten.clang"
  },
  "schemaVersion": "3.3.4",
  "updatedAt": "2021-06-06T11:50:06.170Z",
  "networkType": "ethereum",
  "devdoc": {
    "kind": "dev",
    "methods": {},
    "version": 1
  },
  "userdoc": {
    "kind": "user",
    "methods": {},
    "version": 1
  }
}